:1000000012C02CC02BC02AC0E1C828C00CC926C011
:1000100025C024C023C022C021C020C01FC01EC0D4
:100020001DC01CC01BC011241FBECFE5D4E0DEBF25
:10003000CDBF10E0A0E6B0E0E2E5F3E102C005903C
:100040000D92A838B107D9F720E0A8E8B0E001C0C8
:100050001D92AE3BB207E1F768D779C9D1CFCF93F4
:10006000DF9380918F00823009F068C0E091B0008A
:100070008DECE89F812D1124869586958695C82F55
:10008000CC0FCC0FD0E0A6E9B0E0C05ADF4F2881FA
:1000900030E011963C932E93298130E013963C93E7
:1000A0002E9312972A8130E015963C932E93149745
:1000B0002B8130E017963C932E93169719961C923D
:1000C0001E921897880F982F990F990F890FE81B88
:1000D000EE0FEE0FF0E0E05AFF4F808190E01B96AC
:1000E0009C938E931A97818190E01D969C938E939A
:1000F0001C97828190E01F969C938E931E9783811C
:1001000090E051969C938E93509753961C921E921A
:1001100052978091910080FF08C0FD0184E490E037
:10012000958B848B178A168AB8C6E6E9F0E0158AA3
:10013000148A84E490E0978B868BAFC6813009F0F7
:100140006AC08091910080FF09C0E6E9F0E084E494
:1001500090E0918380831382128208C0E6E9F0E088
:100160001182108284E490E093838283A6E9B0E058
:1001700015961C921E921497E09194008DECE89FC6
:10018000812D1124869586958695C82FCC0FCC0F8E
:10019000D0E0C05ADF4F288130E017963C932E9371
:1001A0001697298130E019963C932E9318972A814F
:1001B00030E01B963C932E931A972B8130E01D96CE
:1001C0003C932E931C971F961C921E921E97880F8D
:1001D000982F990F990F890FE81BEE0FEE0FF0E0A3
:1001E000E05AFF4F808190E051969C938E935097F8
:1001F000818190E053969C938E935297828190E0F8
:1002000055969C938E935497838190E057969C9338
:100210008E93569742C6843009F088C0E091BC00A6
:100220008DECE89F812D1124869586958695C82FA3
:10023000CC0FCC0FD0E0A6E9B0E0C05ADF4F288148
:1002400030E011963C932E93298130E013963C9335
:100250002E9312972A8130E015963C932E93149793
:100260002B8130E017963C932E93169719961C928B
:100270001E921897880F982F990F990F890FE81BD6
:10028000EE0FEE0FF0E0E05AFF4F808190E01B96FA
:100290009C938E931A97818190E01D969C938E93E8
:1002A0001C97828190E01F969C938E931E9783816A
:1002B00090E051969C938E93509753961C921E9269
:1002C00052978091910080FF08C0FD0184E490E086
:1002D000958B848B178A168A08C0E6E9F0E0158AA8
:1002E000148A84E490E0978B868BE6E9F0E08281C3
:1002F00093819260938382838481958192609583B8
:100300008483868197819260978386838085918597
:100310009260918780878285938592609387828798
:1003200084859585926095878487B7C5833009F069
:100330007FC08091910080FF09C0E6E9F0E084E48D
:1003400090E0918380831382128208C0E6E9F0E096
:100350001182108284E490E093838283E09189008B
:100360008DECE89F812D1124869586958695A82F82
:10037000AA0FAA0FB0E0A05ABF4F6C9170E011967F
:100380004C91119750E012962C91129730E01396F1
:10039000CC91D0E0A6E9B0E01F961C921E921E9769
:1003A000880F982F990F990F890FE81BEE0FEE0F0A
:1003B000F0E0E05AFF4F808190E051969C938E933D
:1003C0005097818190E053969C938E9352978281AF
:1003D00090E055969C938E935497838190E0579626
:1003E0009C938E93569712968D919C911397926041
:1003F00013969C938E93129780E092E015969C93AF
:100400008E931497726017967C936E931697526032
:1004100019965C934E93189732601B963C932E93DB
:100420001A97CE0192601D969C938E931C9735C5AA
:10043000863009F088C0E0918C008DECE89F812D1A
:100440001124869586958695C82FCC0FCC0FD0E0C9
:10045000A6E9B0E0C05ADF4F288130E011963C9306
:100460002E93298130E013963C932E9312972A8184
:1004700030E015963C932E9314972B8130E017961D
:100480003C932E93169719961C921E921897880FDC
:10049000982F990F990F890FE81BEE0FEE0FF0E0E0
:1004A000E05AFF4F808190E01B969C938E931A97A1
:1004B000818190E01D969C938E931C97828190E0A1
:1004C0001F969C938E931E97838190E051969C93E8
:1004D0008E93509753961C921E9252978091910042
:1004E00080FF08C0FD0184E490E0958B848B178A1F
:1004F000168A08C0E6E9F0E0158A148A84E490E0E0
:10050000978B868BE6E9F0E08281938192609383FA
:10051000828384819581926095838483868197818B
:10052000926097838683808591859260918780878A
:10053000828593859260938782878685978592606E
:1005400097878687AAC4853009F07BC08091910087
:1005500080FF09C0E6E9F0E084E490E091838083C5
:100560001382128208C0E6E9F0E01182108284E46E
:1005700090E093838283E091B6008DECE89F812D1B
:100580001124869586958695C82FCC0FCC0FD0E088
:10059000C05ADF4F688170E0498150E02A8130E025
:1005A000A6E9B0E0CB81D0E01D96DC93CE931C97FA
:1005B000880F982F990F990F890FE81BEE0FEE0FF8
:1005C000F0E0E05AFF4F808190E051969C938E932B
:1005D0005097818190E053969C938E93529782819D
:1005E00090E055969C938E935497838190E0579614
:1005F0009C938E93569712968D919C91139792602F
:1006000013969C938E931297E0E0F2E01596FC937C
:10061000EE931497CB01926017969C938E93169746
:10062000CA01926019969C938E931897C9019260A3
:100630001B969C938E931A971F96FC93EE931E978E
:100640002CC4E6E9F0E01582148217821682178620
:100650001686118A108A81E090E0918380839383CB
:10066000828391878087938782879587848780E0BC
:1006700091E0938B828B958B848B978B868B80916B
:100680009400853018F48091B0004AC18A30B8F4E3
:10069000E6E9F0E083E090E09187808789E090E0F0
:1006A000918380838BE090E0938382838AE090E063
:1006B00095838483978386838091B00031C18F3086
:1006C000E8F4E6E9F0E081E090E0918B808B81E056
:1006D00091E0938B828B958B848B978B868B89E0B3
:1006E00090E0918380839383828388E090E0958378
:1006F0008483978386838091B00012C1843128F56A
:10070000E6E9F0E085E090E093878287958784872B
:1007100084E090E097878687918B808B84E091E0DE
:10072000938B828B958B848B978B868B89E090E063
:10073000918380839383828388E090E09583848390
:10074000978386838091B000EBC08931D0F4E6E9CD
:10075000F0E083E090E09587848782E090E09787DF
:1007600086878BE090E0918B808B89E091E0938B82
:10077000828B958B848B978B868B8091B0008F5F5B
:10078000CFC08E3110F5E6E9F0E023E030E03383AE
:10079000228382E090E095838483978386833187E8
:1007A000208735872487978786878AE090E0918B1A
:1007B000808B88E091E0938B828B958B848B978BD9
:1007C000868B8091B0008F5FABC0833290F4E6E9F6
:1007D000F0E088E090E0918B808B88E091E0938B53
:1007E000828B958B848B978B868B8091B0008F5FEB
:1007F00097C0883220F5E6E9F0E083E090E0918749
:10080000808789E090E0918380838BE090E0938300
:1008100082838AE090E0958384839783868388E04F
:1008200090E0918B808B88E091E0938B828B958B0D
:10083000848B978B868B8091B0008F5F71C08D32D7
:10084000E0F4E6E9F0E089E090E09183808393832F
:10085000828328E030E03583248337832683918B9D
:10086000808B89E091E0938B828B958B848B978B27
:10087000868B8091B0008F5F53C08233F0F4E6E93D
:10088000F0E084E090E097878687918B808B84E00E
:1008900091E0938B828B958B848B978B868B89E0F1
:1008A00090E0918780878DE090E09387828795879D
:1008B00084878091B0008F5F33C08733C0F4E6E94E
:1008C000F0E081E091E0938B828B958B848B978B0A
:1008D000868B83E090E09587848722E030E037873D
:1008E0002687918B808B8091B0008F5F19C08C33ED
:1008F000C8F4E6E9F0E023E030E03383228382E0CD
:1009000090E095838483978386833187208735871A
:10091000248797878687918B808B8091B0008F5F2B
:1009200081111CC0E6E9F0E082819381916093839C
:100930008283848195819160958384838681978168
:100940009160978386838085918591609187808768
:100950008285938591609387828757C28130B9F4ED
:10096000E6E9F0E0808991898061918B808B8289B2
:1009700093898061938B828B848995898061958B23
:10098000848B868997898061978B868B3EC2823063
:10099000B9F4E6E9F0E084859585806195878487E0
:1009A0008685978580619787868780899189806110
:1009B000918B808B828993898061938B828B25C2F6
:1009C0008330B9F4E6E9F0E0808191818068918319
:1009D00080838281938180689383828384819581DF
:1009E00080689583848386819781806897838683D6
:1009F0000CC28430B9F4E6E9F0E080899189806422
:100A0000918B808B828993898064938B828B84897C
:100A100095898064958B848B868997898064978B70
:100A2000868BF3C18530B9F4E6E9F0E080819181ED
:100A300080619183808382819381806193838283AB
:100A4000848195818061958384838681978180618B
:100A500097838683DAC18630E1F4E6E9F0E08685A3
:100A60009785806297878687808991898062918B3C
:100A7000808B828993898062938B828B848995890C
:100A80008062958B848B868997898062978B868B11
:100A9000BCC1873009F5E6E9F0E080819181806290
:100AA0009183808382819381806293838283848116
:100AB0009581806295838483868197818062978304
:100AC00086838085918580629187808782859385E2
:100AD00080629387828799C18830B9F4E6E9F0E0B3
:100AE000808991898068918B808B828993898068C5
:100AF000938B828B848995898068958B848B86897A
:100B000097898068978B868B80C18930B9F4E6E934
:100B1000F0E08681978180649783868380859185C4
:100B2000806491878087828593858064938782879C
:100B30008485958580649587848767C18A30B9F4F8
:100B4000E6E9F0E0808191818064918380838281F5
:100B5000938180649383828384819581806495836B
:100B60008483868197818064978386834EC18B308E
:100B700091F4E6E9F0E0808591858068918780872F
:100B80008285938580689387828784859585806830
:100B9000958784873AC18C30E1F4E6E9F0E0828100
:100BA0009381916093838283848195819160958301
:100BB00084838681978191609783868380859185E0
:100BC00091609187808782859385916093878287E2
:100BD0001CC18D30B9F4E6E9F0E08089918980612B
:100BE000918B808B828993898061938B828B84899E
:100BF00095898061958B848B868997898061978B95
:100C0000868B03C18E30B9F4E6E9F0E084859585E2
:100C10008061958784878685978580619787868799
:100C2000808991898061918B808B82899389806191
:100C3000938B828BEAC08F30B9F4E6E9F0E08081D3
:100C4000918180689183808382819381806893837E
:100C5000828384819581806895838483868197814E
:100C6000806897838683D1C08031B9F4E6E9F0E0EB
:100C7000808991898064918B808B8289938980643B
:100C8000938B828B848995898064958B848B8689EC
:100C900097898064978B868BB8C08131B9F4E6E977
:100CA000F0E0808191818061918380838281938152
:100CB000806193838283848195818061958384831D
:100CC000868197818061978386839FC08231E1F41A
:100CD000E6E9F0E086859785806297878687808938
:100CE00091898062918B808B828993898062938BBA
:100CF000828B848995898062958B848B868997897C
:100D00008062978B868B81C0833109F5E6E9F0E03C
:100D100080819181806291838083828193818062CE
:100D20009383828384819581806295838483868185
:100D30009781806297838683808591858062918781
:100D40008087828593858062938782875EC08431A5
:100D5000B9F4E6E9F0E0808991898068918B808B15
:100D6000828993898068938B828B84899589806836
:100D7000958B848B868997898068978B868B45C0F5
:100D80008531B9F4E6E9F0E0868197818064978344
:100D9000868380859185806491878087828593850D
:100DA000806493878287848595858064958784870E
:100DB0002CC08631B9F4E6E9F0E08081918180644D
:100DC00091838083828193818064938382838481F1
:100DD00095818064958384838681978180649783DD
:100DE000868313C0873189F4E6E9F0E08085918538
:100DF00080689187808782859385806893878287C2
:100E0000848595858068958784878091B40081303A
:100E100001F5E6E9F0E08281938192609383828319
:100E20008481958192609583848386819781926085
:100E3000978386838085918592609187808782855C
:100E40009385926093878287848595859260958744
:100E500084878091AE00813001F5E6E9F0E082817F
:100E6000938192609383828384819581926095833C
:100E7000848386819781926097838683808591851C
:100E8000926091878087828593859260938782871D
:100E900086859785926097878687DF91CF910895A1
:100EA00084B38F6184BB81B3806F81BB87B38F6153
:100EB00087BB81B3887F81BB82B3876082BB80B7E9
:100EC000847080BF82B5886082BD85E085BD1FBC0F
:100ED00099E09EBD2BE03AE13BBD2ABD90E599BF6C
:100EE0008093B0008BE38093940010929100109255
:100EF0008F0083E090E016D28093BC0082E090E007
:100F000011D28093890081E090E00CD280938C0014
:100F100080E090E007D28093B6001092930081E0C9
:100F20008093B4008093AE000895BADF7894C1E056
:100F300080918800882309F443C010928800829928
:100F400012C08091BD008F5F8093BD008430B8F1E6
:100F500080918F008F5F873018F480938F002FC0AF
:100F600010928F002CC080918D008F5F80938D0038
:100F70008B3038F010928F0080918B00882349F0DD
:100F80001EC080918B0081111AC080918F00811149
:100F900016C0C0938B006091BC0083E090E0CAD182
:100FA0006091890082E090E0C5D160918C0081E081
:100FB00090E0C0D16091B60080E090E0BBD14FD806
:100FC00080918A00882309F4D8C010928A00809BFF
:100FD00059C080918E00882309F454C080919500F7
:100FE000882309F44FC010928E0010928D00109249
:100FF0008B0080918F00813051F4909194009B334D
:1010000010F49F5F01C090E09093940018C082306C
:1010100051F49091B000973110F49F5F01C090E0BF
:101020009093B00018C0833051F4909189009B33A5
:1010300010F49F5F01C090E09093890018C0843045
:1010400051F48091BC00873110F48F5F01C080E0C3
:101050008093BC0017C0853051F48091B6008B336B
:1010600010F48F5F01C080E08093B6000BC0863023
:1010700049F480918C00873110F48F5F01C080E0CB
:1010800080938C00819B47C08091BB00882309F42A
:1010900042C080919500882309F43DC01092BB00A6
:1010A00010928D0010928B0080918F00813039F466
:1010B00090919400911191509093940012C08230BD
:1010C00039F49091B000911191509093B00012C0FA
:1010D000833039F490918900911191509093890057
:1010E00012C0843039F48091BC008111815080930A
:1010F000BC0011C0853039F48091B6008111815057
:101100008093B60008C0863031F480918C00811144
:10111000815080938C00829905C0C09395001092F5
:101120008D0002C01092BD00809904C0C093900051
:10113000C0938E00819904C0C093B100C093BB00DE
:10114000809B0CC080919000882341F01092900009
:101150008091B4008C278093B400AC98819B0CC024
:101160008091B100882341F01092B1008091AE00CF
:101170008C278093AE00AC9872D78091B4008130F8
:1011800079F49091BC008091B000981309C09091BF
:10119000890080919400981303C0C0939300C8CE37
:1011A0008091AE00813079F490918C008091B000F4
:1011B000981309C09091B60080919400981303C0D1
:1011C000C0939300B5CE10929300B2CE1F920F92AF
:1011D0000FB60F9211248F93809191008F5F8C3303
:1011E00018F48093910016C01092910080919400A1
:1011F0008F5F8C3318F4809394000CC0109294008D
:101200008091B0008F5F883118F48093B00002C0E5
:101210001092B00081E0809388008F910F900FBEF4
:101220000F901F9018951F920F920FB60F921124D6
:101230002F938F939F93EF93FF93809192008F5FF3
:10124000809392008C3020F010929200C49801C0DC
:10125000C49AC39AC39885B3807F85BB82B38F70CD
:1012600082BB88B38C7F88BBC29AC298E0919200FF
:10127000F0E0EE0FFF1FEA56FF4F908181819093BF
:10128000B2008093B30025B39F70922B95BB22B31D
:101290009091B200907F922B92BB98B38370892B70
:1012A00088BB8091B5008F5F8093B500803728F0B0
:1012B00081E080938A001092B50080919300813084
:1012C00039F58091B9009091BA008436910570F497
:1012D00095B380E1892785BB8091B9009091BA00D0
:1012E00001969093BA008093B90012C08132934066
:1012F00028F01092BA001092B9000AC0AC98809100
:10130000B9009091BA0001969093BA008093B90009
:10131000FF91EF919F918F912F910F900FBE0F90A2
:101320001F901895E199FECF9FBB8EBBE09A99273D
:101330008DB30895262FE199FECF9FBB8EBB2DBBA9
:101340000FB6F894E29AE19A0FBE01960895F894C8
:02135000FFCFCD
:10135200FE8282FE0804FE00C4A2928C8292927CDB
:101362001E10F8109E9292627894926002F20A061F
:08137200FE9292FE9E9292FE93
:00000001FF
