:1000000012C02CC02BC02AC0AFC928C010CA26C03D
:1000100025C024C023C0D5C921C020C01FC01EC018
:100020001DC01CC01BC011241FBECFE5D4E0DEBF25
:10003000CDBF10E0A0E6B0E0E6E1F5E102C005903A
:100040000D92AC3BB107D9F720E0ACEBB0E001C0BA
:100050001D92A83FB207E1F78DD75BCAD1CF10BC84
:1000600083E389B988E98AB986E880BD0895CF938A
:10007000DF938091C500823009F068C0E091E7000D
:100080008DECE89F812D1124869586958695C82F45
:10009000CC0FCC0FD0E0ADECB0E0CD56DF4F2881D7
:1000A00030E011963C932E93298130E013963C93D7
:1000B0002E9312972A8130E015963C932E93149735
:1000C0002B8130E017963C932E93169719961C922D
:1000D0001E921897880F982F990F990F890FE81B78
:1000E000EE0FEE0FF0E0ED56FF4F808190E01B9693
:1000F0009C938E931A97818190E01D969C938E938A
:100100001C97828190E01F969C938E931E9783810B
:1001100090E051969C938E93509753961C921E920A
:1001200052978091C70080FF08C0FD0184E490E0F1
:10013000958B848B178A168ACDC6EDECF0E0158A74
:10014000148A84E490E0978B868BC4C6813009F0D2
:100150006AC08091C70080FF09C0EDECF0E084E444
:1001600090E0918380831382128208C0EDECF0E06E
:100170001182108284E490E093838283ADECB0E03E
:1001800015961C921E921497E091CA008DECE89F80
:10019000812D1124869586958695C82FCC0FCC0F7E
:1001A000D0E0CD56DF4F288130E017963C932E9358
:1001B0001697298130E019963C932E9318972A813F
:1001C00030E01B963C932E931A972B8130E01D96BE
:1001D0003C932E931C971F961C921E921E97880F7D
:1001E000982F990F990F890FE81BEE0FEE0FF0E093
:1001F000ED56FF4F808190E051969C938E935097DF
:10020000818190E053969C938E935297828190E0E7
:1002100055969C938E935497838190E057969C9328
:100220008E93569757C6843009F088C0E091F60047
:100230008DECE89F812D1124869586958695C82F93
:10024000CC0FCC0FD0E0ADECB0E0CD56DF4F288125
:1002500030E011963C932E93298130E013963C9325
:100260002E9312972A8130E015963C932E93149783
:100270002B8130E017963C932E93169719961C927B
:100280001E921897880F982F990F990F890FE81BC6
:10029000EE0FEE0FF0E0ED56FF4F808190E01B96E1
:1002A0009C938E931A97818190E01D969C938E93D8
:1002B0001C97828190E01F969C938E931E9783815A
:1002C00090E051969C938E93509753961C921E9259
:1002D00052978091C70080FF08C0FD0184E490E040
:1002E000958B848B178A168A08C0EDECF0E0158A8E
:1002F000148A84E490E0978B868BEDECF0E08281A9
:1003000093819260938382838481958192609583A7
:100310008483868197819260978386838085918587
:100320009260918780878285938592609387828788
:1003300084859585926095878487CCC5833009F044
:100340007FC08091C70080FF09C0EDECF0E084E43D
:1003500090E0918380831382128208C0EDECF0E07C
:100360001182108284E490E093838283E091BF0045
:100370008DECE89F812D1124869586958695A82F72
:10038000AA0FAA0FB0E0AD56BF4F6C9170E0119666
:100390004C91119750E012962C91129730E01396E1
:1003A000CC91D0E0ADECB0E01F961C921E921E974F
:1003B000880F982F990F990F890FE81BEE0FEE0FFA
:1003C000F0E0ED56FF4F808190E051969C938E9324
:1003D0005097818190E053969C938E93529782819F
:1003E00090E055969C938E935497838190E0579616
:1003F0009C938E93569712968D919C911397926031
:1004000013969C938E93129780E092E015969C939E
:100410008E931497726017967C936E931697526022
:1004200019965C934E93189732601B963C932E93CB
:100430001A97CE0192601D969C938E931C974AC585
:10044000863009F088C0E091C2008DECE89F812DD4
:100450001124869586958695C82FCC0FCC0FD0E0B9
:10046000ADECB0E0CD56DF4F288130E011963C93E3
:100470002E93298130E013963C932E9312972A8174
:1004800030E015963C932E9314972B8130E017960D
:100490003C932E93169719961C921E921897880FCC
:1004A000982F990F990F890FE81BEE0FEE0FF0E0D0
:1004B000ED56FF4F808190E01B969C938E931A9788
:1004C000818190E01D969C938E931C97828190E091
:1004D0001F969C938E931E97838190E051969C93D8
:1004E0008E93509753961C921E9252978091C700FC
:1004F00080FF08C0FD0184E490E0958B848B178A0F
:10050000168A08C0EDECF0E0158A148A84E490E0C5
:10051000978B868BEDECF0E08281938192609383E0
:10052000828384819581926095838483868197817B
:10053000926097838683808591859260918780877A
:10054000828593859260938782878685978592605E
:1005500097878687BFC4853009F07BC08091C7002C
:1005600080FF09C0EDECF0E084E490E091838083AB
:100570001382128208C0EDECF0E01182108284E454
:1005800090E093838283E091EE008DECE89F812DD3
:100590001124869586958695C82FCC0FCC0FD0E078
:1005A000CD56DF4F688170E0498150E02A8130E00C
:1005B000ADECB0E0CB81D0E01D96DC93CE931C97E0
:1005C000880F982F990F990F890FE81BEE0FEE0FE8
:1005D000F0E0ED56FF4F808190E051969C938E9312
:1005E0005097818190E053969C938E93529782818D
:1005F00090E055969C938E935497838190E0579604
:100600009C938E93569712968D919C91139792601E
:1006100013969C938E931297E0E0F2E01596FC936C
:10062000EE931497CB01926017969C938E93169736
:10063000CA01926019969C938E931897C901926093
:100640001B969C938E931A971F96FC93EE931E977E
:1006500041C4EDECF0E015821482178216821786F1
:100660001686118A108A81E090E0918380839383BB
:10067000828391878087938782879587848780E0AC
:1006800091E0938B828B958B848B978B868B80915B
:10069000CA00853018F48091E7004AC18A30B8F466
:1006A000EDECF0E083E090E09187808789E090E0D6
:1006B000918380838BE090E0938382838AE090E053
:1006C00095838483978386838091E70031C18F303F
:1006D000E8F4EDECF0E081E090E0918B808B81E03C
:1006E00091E0938B828B958B848B978B868B89E0A3
:1006F00090E0918380839383828388E090E0958368
:100700008483978386838091E70012C1843128F522
:10071000EDECF0E085E090E0938782879587848711
:1007200084E090E097878687918B808B84E091E0CE
:10073000938B828B958B848B978B868B89E090E053
:10074000918380839383828388E090E09583848380
:10075000978386838091E700EBC08931D0F4EDEC7C
:10076000F0E083E090E09587848782E090E09787CF
:1007700086878BE090E0918B808B89E091E0938B72
:10078000828B958B848B978B868B8091E7008F5F14
:10079000CFC08E3110F5EDECF0E023E030E0338394
:1007A000228382E090E095838483978386833187D8
:1007B000208735872487978786878AE090E0918B0A
:1007C000808B88E091E0938B828B958B848B978BC9
:1007D000868B8091E7008F5FABC0833290F4EDECA5
:1007E000F0E088E090E0918B808B88E091E0938B43
:1007F000828B958B848B978B868B8091E7008F5FA4
:1008000097C0883220F5EDECF0E083E090E091872E
:10081000808789E090E0918380838BE090E09383F0
:1008200082838AE090E0958384839783868388E03F
:1008300090E0918B808B88E091E0938B828B958BFD
:10084000848B978B868B8091E7008F5F71C08D3290
:10085000E0F4EDECF0E089E090E091838083938315
:10086000828328E030E03583248337832683918B8D
:10087000808B89E091E0938B828B958B848B978B17
:10088000868B8091E7008F5F53C08233F0F4EDECEC
:10089000F0E084E090E097878687918B808B84E0FE
:1008A00091E0938B828B958B848B978B868B89E0E1
:1008B00090E0918780878DE090E09387828795878D
:1008C00084878091E7008F5F33C08733C0F4EDECFD
:1008D000F0E081E091E0938B828B958B848B978BFA
:1008E000868B83E090E09587848722E030E037872D
:1008F0002687918B808B8091E7008F5F19C08C33A6
:10090000C8F4EDECF0E023E030E03383228382E0B2
:1009100090E095838483978386833187208735870A
:10092000248797878687918B808B8091E7008F5FE4
:1009300081111CC0EDECF0E0828193819160938382
:100940008283848195819160958384838681978158
:100950009160978386838085918591609187808758
:100960008285938591609387828757C28130B9F4DD
:10097000EDECF0E0808991898061918B808B828998
:1009800093898061938B828B848995898061958B13
:10099000848B868997898061978B868B3EC2823053
:1009A000B9F4EDECF0E084859585806195878487C6
:1009B0008685978580619787868780899189806100
:1009C000918B808B828993898061938B828B25C2E6
:1009D0008330B9F4EDECF0E08081918180689183FF
:1009E00080838281938180689383828384819581CF
:1009F00080689583848386819781806897838683C6
:100A00000CC28430B9F4EDECF0E080899189806407
:100A1000918B808B828993898064938B828B84896C
:100A200095898064958B848B868997898064978B60
:100A3000868BF3C18530B9F4EDECF0E080819181D3
:100A4000806191838083828193818061938382839B
:100A5000848195818061958384838681978180617B
:100A600097838683DAC18630E1F4EDECF0E0868589
:100A70009785806297878687808991898062918B2C
:100A8000808B828993898062938B828B84899589FC
:100A90008062958B848B868997898062978B868B01
:100AA000BCC1873009F5EDECF0E080819181806276
:100AB0009183808382819381806293838283848106
:100AC00095818062958384838681978180629783F4
:100AD00086838085918580629187808782859385D2
:100AE00080629387828799C18830B9F4EDECF0E099
:100AF000808991898068918B808B828993898068B5
:100B0000938B828B848995898068958B848B868969
:100B100097898068978B868B80C18930B9F4EDEC1A
:100B2000F0E08681978180649783868380859185B4
:100B3000806491878087828593858064938782878C
:100B40008485958580649587848767C18A30B9F4E8
:100B5000EDECF0E0808191818064918380838281DB
:100B6000938180649383828384819581806495835B
:100B70008483868197818064978386834EC18B307E
:100B800091F4EDECF0E08085918580689187808715
:100B90008285938580689387828784859585806820
:100BA000958784873AC18C30E1F4EDECF0E08281E6
:100BB00093819160938382838481958191609583F1
:100BC00084838681978191609783868380859185D0
:100BD00091609187808782859385916093878287D2
:100BE0001CC18D30B9F4EDECF0E080899189806111
:100BF000918B808B828993898061938B828B84898E
:100C000095898061958B848B868997898061978B84
:100C1000868B03C18E30B9F4EDECF0E084859585C8
:100C20008061958784878685978580619787868789
:100C3000808991898061918B808B82899389806181
:100C4000938B828BEAC08F30B9F4EDECF0E08081B9
:100C5000918180689183808382819381806893836E
:100C6000828384819581806895838483868197813E
:100C7000806897838683D1C08031B9F4EDECF0E0D1
:100C8000808991898064918B808B8289938980642B
:100C9000938B828B848995898064958B848B8689DC
:100CA00097898064978B868BB8C08131B9F4EDEC5D
:100CB000F0E0808191818061918380838281938142
:100CC000806193838283848195818061958384830D
:100CD000868197818061978386839FC08231E1F40A
:100CE000EDECF0E08685978580629787868780891E
:100CF00091898062918B808B828993898062938BAA
:100D0000828B848995898062958B848B868997896B
:100D10008062978B868B81C0833109F5EDECF0E022
:100D200080819181806291838083828193818062BE
:100D30009383828384819581806295838483868175
:100D40009781806297838683808591858062918771
:100D50008087828593858062938782875EC0843195
:100D6000B9F4EDECF0E0808991898068918B808BFB
:100D7000828993898068938B828B84899589806826
:100D8000958B848B868997898068978B868B45C0E5
:100D90008531B9F4EDECF0E086819781806497832A
:100DA00086838085918580649187808782859385FD
:100DB00080649387828784859585806495878487FE
:100DC0002CC08631B9F4EDECF0E080819181806433
:100DD00091838083828193818064938382838481E1
:100DE00095818064958384838681978180649783CD
:100DF000868313C0873189F4EDECF0E0808591851E
:100E000080689187808782859385806893878287B1
:100E1000848595858068958784878091EB008130F3
:100E200001F5EDECF0E082819381926093838283FF
:100E30008481958192609583848386819781926075
:100E4000978386838085918592609187808782854C
:100E50009385926093878287848595859260958734
:100E600084878091E500813001F5EDECF0E082812E
:100E7000938192609383828384819581926095832C
:100E8000848386819781926097838683808591850C
:100E9000926091878087828593859260938782870D
:100EA000868597859260978786878091F10081304B
:100EB00089F4EDECF0E0828993899260938B828BC8
:100EC000848995899260958B848B868997899260B5
:100ED000978B868BDF91CF91089584B38F6084BB0D
:100EE00081B3886F81BB87B38F6187BB81B3887FF4
:100EF00081BB84B38F7C84BB82B3876082BB85B3A4
:100F0000806385BB80B7847080BF82B5886082BDF6
:100F100085E085BD1FBC99E09EBD2BE03AE13BBD5D
:100F20002ABD90E599BF8093E7008BE38093CA00C8
:100F30001092C7001092C5001092F10083E090E07B
:100F4000D3D28093F60082E090E0CED28093BF00AF
:100F500081E090E0C9D28093C20080E090E0C4D2EA
:100F60008093EE001092C90081E08093EB008093A3
:100F7000E5000895B2DF73D87894D1E000E610E080
:100F8000CD2F0F2EF7E1FF2EF02D8091BE0088238C
:100F900009F443C01092BE00829912C08091F700FC
:100FA0008F5F8093F7008430B8F18091C5008F5F28
:100FB000873018F48093C5002FC01092C5002CC054
:100FC0008091C3008F5F8093C3008B3038F0109204
:100FD000C5008091C100882349F01EC08091C100E6
:100FE00081111AC08091C500811116C0C093C10043
:100FF0006091F60083E090E07FD26091BF0082E0D4
:1010000090E07AD26091C20081E090E075D2609168
:10101000EE0080E090E070D22AD88091C000882352
:1010200009F4EAC01092C0009C9B59C08091C40092
:10103000882309F454C08091CC00882309F44FC060
:101040001092C4001092C3001092C1008091C5009C
:10105000813051F49091CA009B3310F49F5F01C01E
:1010600090E09093CA0018C0823051F49091E7004C
:10107000973110F49F5F01C090E09093E70018C093
:10108000833051F49091BF009B3310F49F5F01C0F7
:1010900090E09093BF0018C0843051F48091F60026
:1010A000873110F48F5F01C080E08093F60017C095
:1010B000853051F48091EE008B3310F48F5F01C0C6
:1010C00080E08093EE000BC0863049F48091C2002E
:1010D000873110F48F5F01C080E08093C2009D9B38
:1010E00059C08091F500882309F454C08091CC0048
:1010F000882309F44FC01092F5001092C30010929B
:10110000C1008091C500813051F49091CA009923AB
:1011100011F0915001C09BE39093CA0018C0823037
:1011200051F49091E700992311F0915001C09F2D47
:101130009093E70018C0833051F49091BF00992339
:1011400011F0915001C09BE39093BF0018C0843010
:1011500051F48091F600882311F0815001C08F2D49
:101160008093F60017C0853051F48091EE008823FB
:1011700011F0815001C08BE38093EE000BC08630EC
:1011800049F48091C200882311F0815001C08F2D55
:101190008093C200829905C0C093CC001092C30016
:1011A00002C01092F7009C9904C0C093C600C0937F
:1011B000C4009D9904C0C093E800C093F5009C9BB7
:1011C0000CC08091C600882341F01092C600809127
:1011D000EB008D278093EB0093989D9B0CC0809132
:1011E000E800882341F01092E8008091E5008D2707
:1011F0008093E50093983BD78091EB00813079F4A0
:101200009091F6008091E700981309C09091BF007B
:101210008091CA00981303C0C093C90015C0809183
:10122000E500813079F49091C2008091E700981335
:1012300009C09091EE008091CA00981303C0C0933A
:10124000C90002C01092C9008091BD00813009F030
:101250004BC0F8018781833509F044C0808589350A
:1012600009F040C081858335E9F582858435D1F563
:1012700083858934B9F584858D34A1F585858534D8
:1012800089F58785803299F4808980538093F200B4
:10129000828923892053880F8056982F990F990FA0
:1012A000890F820F8093CB00C093ED001BC0F80123
:1012B000878520892053880F8056982F990F990F82
:1012C000890F820F8093F200828923892053880F2F
:1012D0008056982F990F990F890F820F8093CB001A
:1012E000C093ED001092BD003091F2009091CB00C0
:1012F0008C2F2091CA00921301C080E0811108C098
:101300008C2F2091E700321301C080E0882379F010
:101310008091ED00813049F43093E7009093CA004A
:10132000C093F1001092ED0002C01092F100809184
:10133000C900813061F48091F3009091F400823310
:10134000910510F4939A03C0C39708F09398809185
:10135000F3009091F4008538934008F416CE109273
:10136000F4001092F30011CE1F920F920FB60F925D
:1013700011248F938091C7008F5F8C3318F4809372
:10138000C70016C01092C7008091CA008F5F8C33CF
:1013900018F48093CA000CC01092CA008091E70034
:1013A0008F5F883118F48093E70002C01092E70045
:1013B00081E08093BE008F910F900FBE0F901F9021
:1013C00018951F920F920FB60F9211248F939F932F
:1013D000EF93FF938CB19091BD0091111FC08A30A3
:1013E00091F08D3081F09091BC00913360F4E091E8
:1013F000BC00F0E0E05AFF4F80838091BC008F5F1B
:101400008093BC000BC0E091BC00F0E0E05AFF4FBD
:1014100010821092BC0081E08093BD00FF91EF919B
:101420009F918F910F900FBE0F901F9018951F9254
:101430000F920FB60F9211242F938F939F93EF93D8
:10144000FF938091C8008F5F8093C8008C3020F09C
:101450001092C800C49801C0C49AC39AC39885B3B7
:10146000807F85BB82B38F7082BB88B38C7F88BB43
:10147000C29AC298E091C800F0E0EE0FFF1FE3535C
:10148000FF4F908181819093E9008093EA0025B31A
:101490009F70922B95BB22B39091E900907F922B85
:1014A00092BB98B38370892B88BB8091EC008F5FCF
:1014B0008093EC00803728F081E08093C000109288
:1014C000EC008091F3009091F40001969093F40069
:1014D0008093F300FF91EF919F918F912F910F9047
:1014E0000FBE0F901F901895E199FECF9FBB8EBB4A
:1014F000E09A99278DB30895262FE199FECF9FBBDF
:101500008EBB2DBB0FB6F894E29AE19A0FBE0196FE
:061510000895F894FFCFDE
:10151600580000000000000000000000000000006D
:1015260000000000000000000000000000000000B5
:1015360000000000000000000000000000000000A5
:10154600000000FE8282FE0804FE00C4A2928C8285
:1015560092927C1E10F8109E92926278949260028B
:0C156600F20A06FE9292FE9E9292FE0097
:00000001FF
