:1000000012C02CC02BC02AC075CA28C0D6CA26C0B0
:1000100025C024C023C09BCA21C020C01FC01EC051
:100020001DC01CC01BC011241FBECFE5D4E0DEBF25
:10003000CDBF10E0A0E6B0E0E2EAF6E102C0059034
:100040000D92AC3BB107D9F720E0ACEBB0E001C0BA
:100050001D92AB3FB207E1F7D8D721CBD1CF10BC6F
:1000600083E389B988E98AB986E880BD0895CF938A
:10007000DF938091C600823009F068C0E091E8000B
:100080008DECE89F812D1124869586958695C82F45
:10009000CC0FCC0FD0E0AEECB0E0CD56DF4F2881D6
:1000A00030E011963C932E93298130E013963C93D7
:1000B0002E9312972A8130E015963C932E93149735
:1000C0002B8130E017963C932E93169719961C922D
:1000D0001E921897880F982F990F990F890FE81B78
:1000E000EE0FEE0FF0E0ED56FF4F808190E01B9693
:1000F0009C938E931A97818190E01D969C938E938A
:100100001C97828190E01F969C938E931E9783810B
:1001100090E051969C938E93509753961C921E920A
:1001200052978091C80080FF08C0FD0184E490E0F0
:10013000958B848B178A168A0BC7EEECF0E0158A34
:10014000148A84E490E0978B868B02C7813009F093
:100150006AC08091C80080FF09C0EEECF0E084E442
:1001600090E0918380831382128208C0EEECF0E06D
:100170001182108284E490E093838283AEECB0E03D
:1001800015961C921E921497E091CB008DECE89F7F
:10019000812D1124869586958695C82FCC0FCC0F7E
:1001A000D0E0CD56DF4F288130E017963C932E9358
:1001B0001697298130E019963C932E9318972A813F
:1001C00030E01B963C932E931A972B8130E01D96BE
:1001D0003C932E931C971F961C921E921E97880F7D
:1001E000982F990F990F890FE81BEE0FEE0FF0E093
:1001F000ED56FF4F808190E051969C938E935097DF
:10020000818190E053969C938E935297828190E0E7
:1002100055969C938E935497838190E057969C9328
:100220008E93569795C6843009F088C0E091F80007
:100230008DECE89F812D1124869586958695C82F93
:10024000CC0FCC0FD0E0AEECB0E0CD56DF4F288124
:1002500030E011963C932E93298130E013963C9325
:100260002E9312972A8130E015963C932E93149783
:100270002B8130E017963C932E93169719961C927B
:100280001E921897880F982F990F990F890FE81BC6
:10029000EE0FEE0FF0E0ED56FF4F808190E01B96E1
:1002A0009C938E931A97818190E01D969C938E93D8
:1002B0001C97828190E01F969C938E931E9783815A
:1002C00090E051969C938E93509753961C921E9259
:1002D00052978091C80080FF08C0FD0184E490E03F
:1002E000958B848B178A168A08C0EEECF0E0158A8D
:1002F000148A84E490E0978B868BEEECF0E08281A8
:1003000093819260938382838481958192609583A7
:100310008483868197819260978386838085918587
:100320009260918780878285938592609387828788
:10033000848595859260958784870AC6833009F005
:100340007FC08091C80080FF09C0EEECF0E084E43B
:1003500090E0918380831382128208C0EEECF0E07B
:100360001182108284E490E093838283E091BF0045
:100370008DECE89F812D1124869586958695A82F72
:10038000AA0FAA0FB0E0AD56BF4F6C9170E0119666
:100390004C91119750E012962C91129730E01396E1
:1003A000CC91D0E0AEECB0E01F961C921E921E974E
:1003B000880F982F990F990F890FE81BEE0FEE0FFA
:1003C000F0E0ED56FF4F808190E051969C938E9324
:1003D0005097818190E053969C938E93529782819F
:1003E00090E055969C938E935497838190E0579616
:1003F0009C938E93569712968D919C911397926031
:1004000013969C938E93129780E092E015969C939E
:100410008E931497726017967C936E931697526022
:1004200019965C934E93189732601B963C932E93CB
:100430001A97CE0192601D969C938E931C9788C547
:10044000863009F088C0E091C3008DECE89F812DD3
:100450001124869586958695C82FCC0FCC0FD0E0B9
:10046000AEECB0E0CD56DF4F288130E011963C93E2
:100470002E93298130E013963C932E9312972A8174
:1004800030E015963C932E9314972B8130E017960D
:100490003C932E93169719961C921E921897880FCC
:1004A000982F990F990F890FE81BEE0FEE0FF0E0D0
:1004B000ED56FF4F808190E01B969C938E931A9788
:1004C000818190E01D969C938E931C97828190E091
:1004D0001F969C938E931E97838190E051969C93D8
:1004E0008E93509753961C921E9252978091C800FB
:1004F00080FF08C0FD0184E490E0958B848B178A0F
:10050000168A08C0EEECF0E0158A148A84E490E0C4
:10051000978B868BEEECF0E08281938192609383DF
:10052000828384819581926095838483868197817B
:10053000926097838683808591859260918780877A
:10054000828593859260938782878685978592605E
:1005500097878687FDC4853009F07BC08091C800ED
:1005600080FF09C0EEECF0E084E490E091838083AA
:100570001382128208C0EEECF0E01182108284E453
:1005800090E093838283E091EF008DECE89F812DD2
:100590001124869586958695C82FCC0FCC0FD0E078
:1005A000CD56DF4F688170E0498150E02A8130E00C
:1005B000AEECB0E0CB81D0E01D96DC93CE931C97DF
:1005C000880F982F990F990F890FE81BEE0FEE0FE8
:1005D000F0E0ED56FF4F808190E051969C938E9312
:1005E0005097818190E053969C938E93529782818D
:1005F00090E055969C938E935497838190E0579604
:100600009C938E93569712968D919C91139792601E
:1006100013969C938E931297E0E0F2E01596FC936C
:10062000EE931497CB01926017969C938E93169736
:10063000CA01926019969C938E931897C901926093
:100640001B969C938E931A971F96FC93EE931E977E
:100650007FC4EEECF0E015821482178216821786B2
:100660001686118A108A81E090E0918380839383BB
:10067000828391878087938782879587848780E0AC
:1006800091E0938B828B958B848B978B868B80915B
:10069000CB00853018F48091E8004AC18A30B8F464
:1006A000EEECF0E083E090E09187808789E090E0D5
:1006B000918380838BE090E0938382838AE090E053
:1006C00095838483978386838091E80031C18F303E
:1006D000E8F4EEECF0E081E090E0918B808B81E03B
:1006E00091E0938B828B958B848B978B868B89E0A3
:1006F00090E0918380839383828388E090E0958368
:100700008483978386838091E80012C1843128F521
:10071000EEECF0E085E090E0938782879587848710
:1007200084E090E097878687918B808B84E091E0CE
:10073000938B828B958B848B978B868B89E090E053
:10074000918380839383828388E090E09583848380
:10075000978386838091E800EBC08931D0F4EEEC7A
:10076000F0E083E090E09587848782E090E09787CF
:1007700086878BE090E0918B808B89E091E0938B72
:10078000828B958B848B978B868B8091E8008F5F13
:10079000CFC08E3110F5EEECF0E023E030E0338393
:1007A000228382E090E095838483978386833187D8
:1007B000208735872487978786878AE090E0918B0A
:1007C000808B88E091E0938B828B958B848B978BC9
:1007D000868B8091E8008F5FABC0833290F4EEECA3
:1007E000F0E088E090E0918B808B88E091E0938B43
:1007F000828B958B848B978B868B8091E8008F5FA3
:1008000097C0883220F5EEECF0E083E090E091872D
:10081000808789E090E0918380838BE090E09383F0
:1008200082838AE090E0958384839783868388E03F
:1008300090E0918B808B88E091E0938B828B958BFD
:10084000848B978B868B8091E8008F5F71C08D328F
:10085000E0F4EEECF0E089E090E091838083938314
:10086000828328E030E03583248337832683918B8D
:10087000808B89E091E0938B828B958B848B978B17
:10088000868B8091E8008F5F53C08233F0F4EEECEA
:10089000F0E084E090E097878687918B808B84E0FE
:1008A00091E0938B828B958B848B978B868B89E0E1
:1008B00090E0918780878DE090E09387828795878D
:1008C00084878091E8008F5F33C08733C0F4EEECFB
:1008D000F0E081E091E0938B828B958B848B978BFA
:1008E000868B83E090E09587848722E030E037872D
:1008F0002687918B808B8091E8008F5F19C08C33A5
:10090000C8F4EEECF0E023E030E03383228382E0B1
:1009100090E095838483978386833187208735870A
:10092000248797878687918B808B8091E8008F5FE3
:1009300081111CC0EEECF0E0828193819160938381
:100940008283848195819160958384838681978158
:100950009160978386838085918591609187808758
:100960008285938591609387828775C28130B9F4BF
:10097000EEECF0E0808991898061918B808B828997
:1009800093898061938B828B848995898061958B13
:10099000848B868997898061978B868B5CC2823035
:1009A000B9F4EEECF0E084859585806195878487C5
:1009B0008685978580619787868780899189806100
:1009C000918B808B828993898061938B828B43C2C8
:1009D0008330B9F4EEECF0E08081918180689183FE
:1009E00080838281938180689383828384819581CF
:1009F00080689583848386819781806897838683C6
:100A00002AC28430B9F4EEECF0E0808991898064E8
:100A1000918B808B828993898064938B828B84896C
:100A200095898064958B848B868997898064978B60
:100A3000868B11C28530B9F4EEECF0E080819181B3
:100A4000806191838083828193818061938382839B
:100A5000848195818061958384838681978180617B
:100A600097838683F8C18630E1F4EEECF0E086856A
:100A70009785806297878687808991898062918B2C
:100A8000808B828993898062938B828B84899589FC
:100A90008062958B848B868997898062978B868B01
:100AA000DAC1873009F5EEECF0E080819181806257
:100AB0009183808382819381806293838283848106
:100AC00095818062958384838681978180629783F4
:100AD00086838085918580629187808782859385D2
:100AE000806293878287B7C18830B9F4EEECF0E07A
:100AF000808991898068918B808B828993898068B5
:100B0000938B828B848995898068958B848B868969
:100B100097898068978B868B9EC18930B9F4EEECFB
:100B2000F0E08681978180649783868380859185B4
:100B3000806491878087828593858064938782878C
:100B40008485958580649587848785C18A30B9F4CA
:100B5000EEECF0E0808191818064918380838281DA
:100B6000938180649383828384819581806495835B
:100B70008483868197818064978386836CC18B3060
:100B800091F4EEECF0E08085918580689187808714
:100B90008285938580689387828784859585806820
:100BA0009587848758C18C30E1F4EEECF0E08281C7
:100BB00093819160938382838481958191609583F1
:100BC00084838681978191609783868380859185D0
:100BD00091609187808782859385916093878287D2
:100BE0003AC18D30B9F4EEECF0E0808991898061F2
:100BF000918B808B828993898061938B828B84898E
:100C000095898061958B848B868997898061978B84
:100C1000868B21C18E30B9F4EEECF0E084859585A9
:100C20008061958784878685978580619787868789
:100C3000808991898061918B808B82899389806181
:100C4000938B828B08C18F30B9F4EEECF0E0808199
:100C5000918180689183808382819381806893836E
:100C6000828384819581806895838483868197813E
:100C7000806897838683EFC08031B9F4EEECF0E0B2
:100C8000808991898064918B808B8289938980642B
:100C9000938B828B848995898064958B848B8689DC
:100CA00097898064978B868BD6C08131B9F4EEEC3E
:100CB000F0E0808191818061918380838281938142
:100CC000806193838283848195818061958384830D
:100CD00086819781806197838683BDC08231E1F4EC
:100CE000EEECF0E08685978580629787868780891D
:100CF00091898062918B808B828993898062938BAA
:100D0000828B848995898062958B848B868997896B
:100D10008062978B868B9FC0833109F5EEECF0E003
:100D200080819181806291838083828193818062BE
:100D30009383828384819581806295838483868175
:100D40009781806297838683808591858062918771
:100D50008087828593858062938782877CC0843177
:100D6000B9F4EEECF0E0808991898068918B808BFA
:100D7000828993898068938B828B84899589806826
:100D8000958B848B868997898068978B868B63C0C7
:100D90008531B9F4EEECF0E0868197818064978329
:100DA00086838085918580649187808782859385FD
:100DB00080649387828784859585806495878487FE
:100DC0004AC08631B9F4EEECF0E080819181806414
:100DD00091838083828193818064938382838481E1
:100DE00095818064958384838681978180649783CD
:100DF000868331C0873191F4EEECF0E080859185F7
:100E000080689187808782859385806893878287B1
:100E1000848595858068958784871DC08831D9F43D
:100E2000EEECF0E0828193819160938382838481F0
:100E30009581916095838483868197819160978362
:100E4000868380859185916091878087828593854F
:100E50009160938782878091EC00813001F5EEEC00
:100E6000F0E0828193819260938382838481958173
:100E7000926095838483868197819260978386832D
:100E80008085918592609187808782859385926025
:100E900093878287848595859260958784878091E2
:100EA000E600813001F5EEECF0E082819381926002
:100EB00093838283848195819260958384838681E4
:100EC00097819260978386838085918592609187D0
:100ED00080878285938592609387828786859785B0
:100EE0009260978786878091F300813089F4EEECD9
:100EF000F0E0828993899260938B828B84899589B3
:100F00009260958B848B868997899260978B868B6C
:100F10008091F2008130E1F4EEECF0E08FEF9FE0A1
:100F2000918380839383828395838483978386834D
:100F3000918780879387828795878487978786871D
:100F4000918B808B938B828B958B848B978B868BED
:100F5000DF91CF910895CF9384B38F6084BB81B329
:100F6000886F81BB87B38F6187BB81B3887F81BB6B
:100F700084B38F7C84BB82B3876082BB85B380637C
:100F800085BB80B7847080BF82B5886082BD85E0F4
:100F900085BD1FBC99E09EBD2BE03AE13BBD2ABD5B
:100FA00090E599BF8093E8008BE38093CB0010928B
:100FB000C8001092C6001092F300C1E0C093F20086
:100FC0001092C1001092CA001092F90084E090E0E3
:100FD00051D38093F80083E090E04CD38093BF001E
:100FE00082E090E047D38093C30081E090E042D359
:100FF0008093EF0080E090E03DD38093C100C093E8
:10100000EC00C093E600CF910895A5DF28D878942E
:101010000EEC10E06894EE24E4F8F12CD1E00F2EF1
:10102000F7E1AF2EF02D0F2EF0E6CF2EF0E0DF2E01
:10103000F02DCD2FBA2C8091BE00882309F4A4C0D6
:101040001092BE00829912C08091FA008F5F809347
:10105000FA008430B8F18091C6008F5F873018F4B1
:101060008093C6002FC01092C6002CC08091C4008F
:101070008F5F8093C4008B3038F01092C60080914F
:10108000C20081111FC008C08091C20081111AC026
:101090008091C600811116C0C093C2006091F80013
:1010A00084E090E0EFD26091BF0083E090E0EAD26C
:1010B0006091C30082E090E0E5D26091EF0081E0B2
:1010C00090E0E0D28091F200882309F45CC0809126
:1010D000F9008A30A0F48F5F8093F9009C9906C0D4
:1010E0001092C10060E080E090E0CCD29D994BC0AE
:1010F000C093C1006C2F80E090E0C4D244C08091C6
:10110000C10081111AC0F80115821482178216825B
:101110001586148617861686158A148A178A168AE3
:10112000F182E082F382E282F186E086F386E28653
:10113000F18AE08AF38AE28A1BC08130C9F4F8019F
:10114000F182E082F382E282F582E482F782E68233
:10115000F186E086F386E286F586E486F786E68603
:10116000F18AE08AF38AE28AF58AE48AF78AE68AD3
:10117000FFEF27EA81E6F15020408040E1F700C010
:1011800000001092F20073D78091C000882309F408
:10119000EAC01092C0009C9B59C08091C500882372
:1011A00009F454C08091CD00882309F44FC01092F7
:1011B000C5001092C4001092C2008091C600813018
:1011C00051F49091CB009B3310F49F5F01C090E0ED
:1011D0009093CB0018C0823051F49091E800973181
:1011E00010F49F5F01C090E09093E80018C0833036
:1011F00051F49091BF009B3310F49F5F01C090E0C9
:101200009093BF0018C0843051F48091F80087316A
:1012100010F48F5F01C080E08093F80017C0853024
:1012200051F48091EF008B3310F48F5F01C080E0A8
:101230008093EF000BC0863049F48091C300873162
:1012400010F48F5F01C080E08093C3009D9B59C064
:101250008091F700882309F454C08091CD00882341
:1012600009F44FC01092F7001092C4001092C2000F
:101270008091C600813051F49091CB00992311F0F8
:10128000915001C09BE39093CB0018C0823051F481
:101290009091E800992311F0915001C09B2D9093FB
:1012A000E80018C0833051F49091BF00992311F0E9
:1012B000915001C09BE39093BF0018C0843051F45B
:1012C0008091F800882311F0815001C08B2D80930C
:1012D000F80017C0853051F48091EF00882311F099
:1012E000815001C08BE38093EF000BC0863049F43E
:1012F0008091C300882311F0815001C08B2D809311
:10130000C300829905C0C093CD001092C40002C0F2
:101310001092FA009C9904C0C093C700C093C50006
:101320009D9904C0C093E900C093F7009C9B0CC03A
:101330008091C700882341F01092C7008091E60099
:101340008D278093E60093989D9B0CC08091E900C7
:10135000882341F01092E9008091EC008D27809362
:10136000EC00939884D68091EC00813079F49091D0
:10137000F8008091E800981309C09091BF00809117
:10138000CB00981303C0C093CA0015C08091E6003B
:10139000813079F49091C3008091E800981309C0DE
:1013A0009091EF008091CB00981303C0C093CA00C6
:1013B00002C01092CA008091BD00813009F04BC07C
:1013C000F6018781833509F044C08085893509F0AD
:1013D00040C081858335E9F582858435D1F58385E3
:1013E0008934B9F584858D34A1F58585853489F5F1
:1013F0008785803299F4808980538093F4008289B4
:101400009389880F8056282F220F220F820F905326
:10141000890F8093CC00C093EE001BC0F601878536
:101420009089880F8056282F220F220F820F905309
:10143000890F8093F40082899389880F8056282F22
:10144000220F220F820F9053890F8093CC00C093FC
:10145000EE001092BD009091F4003091CC008C2FE2
:101460002091E800291301C080E0811108C08C2F71
:101470002091CB00231301C080E0882379F0809174
:10148000EE00813049F49093E8003093CB00C09394
:10149000F3001092EE0002C01092F3008091CA0097
:1014A000813009F0C8CD8091C10081110DC08091BB
:1014B000F5009091F6008333910510F4939A04C0DF
:1014C0008233910598F093988091F5009091F60001
:1014D0008438934020F01092F6001092F50080912D
:1014E000C100813009F0A7CD939AA4CD84389340F0
:1014F00090F7A1CD1F920F920FB60F9211248F93E8
:101500008091C8008F5F8C3318F48093C80016C098
:101510001092C8008091CB008F5F8C3318F48093B9
:10152000CB000CC01092CB008091E8008F5F883117
:1015300018F48093E80002C01092E80081E08093E4
:10154000BE008F910F900FBE0F901F9018951F92A5
:101550000F920FB60F9211248F939F93EF93FF93E7
:101560008CB19091BD0091111FC08A3091F08D30E7
:1015700081F09091BC00913360F4E091BC00F0E008
:10158000E05AFF4F80838091BC008F5F8093BC0046
:101590000BC0E091BC00F0E0E05AFF4F10821092C7
:1015A000BC0081E08093BD00FF91EF919F918F91EE
:1015B0000F900FBE0F901F9018951F920F920FB6AD
:1015C0000F9211242F938F939F93EF93FF9380910A
:1015D000C9008F5F8093C9008C3020F01092C90041
:1015E000C49801C0C49AC39AC39885B3807F85BB51
:1015F00082B38F7082BB88B38C7F88BBC29AC2983B
:10160000E091C900F0E0EE0FFF1FE253FF4F908121
:1016100081819093EA008093EB0025B39F70922B19
:1016200095BB22B39091EA00907F922B92BB98B326
:101630008370892B88BB8091ED008F5F8093ED00D4
:10164000803728F081E08093C0001092ED008091F7
:10165000F5009091F60001969093F6008093F500C6
:10166000FF91EF919F918F912F910F900FBE0F904F
:101670001F901895E199FECF9FBB8EBBE09A9927EA
:101680008DB30895262FE199FECF9FBB8EBB2DBB56
:101690000FB6F894E29AE19A0FBE01960895F89475
:0216A000FFCF7A
:1016A20058000000000000000000000000000000E0
:1016B2000000000000000000000000000000000028
:1016C2000000000000000000000000000000000018
:1016D200000000FE8282FE0804FE00C4A2928C82F8
:1016E20092927C1E10F8109E9292627894926002FE
:0C16F200F20A06FE9292FE9E9292FE000A
:00000001FF
